:020000040800F2
:100000003819002005010008372100082F210008B9
:1000100033210008030E0008F1260008000000004C
:10002000000000000000000000000000C5240008DF
:10003000070E0008000000007D240008C724000807
:100040001F0100081F0100081F0100081F01000810
:100050001F0100081F0100081F0100081F01000800
:100060001F0100081F0100081F0100081F010008F0
:100070001F0100081F0100081F0100081F010008E0
:100080001F0100081F0100081F0100081F010008D0
:100090001F0100081F0100081F0100081F010008C0
:1000A0001F0100081F0100081F0100081F010008B0
:1000B0001F0100081F0100081F0100081F010008A0
:1000C0001F0100081F0100081F0100081F01000890
:1000D0001F0100081F0100089D2600081F010008DD
:1000E0001F0100081F0100081F010008DFF810D0E1
:1000F00000F0D4FD004800473D380008AFF3008011
:10010000381900200648804706480047FEE7FEE70A
:10011000FEE7FEE7FEE7FEE7FEE7FEE7FEE7FEE7B7
:10012000CF240008ED000008A0F14101192900D8F2
:100130002030704740EA01039B0703D009E008C95B
:10014000121F08C0042AFAD203E011F8013B00F89C
:10015000013B521EF9D27047D2B201E000F8012BE8
:10016000491EFBD270470022F6E710B513460A4637
:1001700004461946FFF7F0FF204610BD30B505468E
:100180002A460B4612F8010B13F8014B08B1A042A6
:10019000F8D01CB1002802D06D1CF1E7284630BD14
:1001A000421C10F8011B0029FBD1801A704710B5C2
:1001B000002200E0521C835C8C5CA34201D1002B26
:1001C000F8D1D8B2E1B2401A10BD034611F8012BA4
:1001D00000F8012B002AF9D11846704730B50546C2
:1001E0000020034600E05B1C934205D2EC5CC85C37
:1001F000201A01D1002CF6D130BD00002DE9FF4FAF
:10020000087883B09946FF2805D0491C2D2804D0D2
:100210000024002008E000200BE00124F9E700EBB7
:10022000800003EB4000491C0B78FF2BF7D104B191
:10023000404200230293147819461D462D2C01D00C
:100240002B2C04D1521C2D2C13D000240294AA462E
:100250001478FF2C0FD00A25A3FB057801FB05813C
:100260004FF0000C03FB0C11521CE3194AEB010187
:10027000EEE70124EAE7814453EA010002D019F5D0
:10028000C87F06DA03980021C0E9001107B0BDE875
:10029000F08F0025AE4E2F46DFF8B882184600F0EA
:1002A000BDFCCDE90001B9F1000002DAC9F100049A
:1002B00000E004460023A74A1AEB030B42EB045A62
:1002C00012E0E00707D02A4633463846414600F0A0
:1002D000F9F9074688462A4633461046194600F083
:1002E000F1F905460E466410002CEAD1DDE9000163
:1002F000B9F1000F5A46534606DA00F020FC3A46A0
:10030000434600F01CFC05E000F0DCF93A464346A9
:1003100000F0D8F9029A0AB181F00041039AC2E9CB
:100320000001B3E72DE9FF4F1F468DB0D7E9014625
:100330004FF0FF382E2045464FF000090B90B96969
:100340006D1C0E988847396A824688470028F6D186
:10035000BAF1FF3F0AD024F4D064002E11DDBAF1C7
:100360002B0F08D0BAF12D0F0BD102E0404611B08F
:100370008DE744F48064B9696D1C0E988847824605
:10038000761E6946600501D52D2000E02B208DF8F2
:10039000000001F1010B0DF1200809E0B9696D1CA5
:1003A0000E98884782460F9844F40074761E0560C4
:1003B000002E02DDBAF1300FF0D00B998A453ED104
:1003C00044F0800406E00F99681CA9F1010944F487
:1003D00000740860B9696D1C761E0E9888478246C5
:1003E0003028F0D02BE00B998A4505D1200603D4A4
:1003F00044F08004761E18E0504602F0E7FA08B395
:100400000DF11301761E44F400748B4508D2AAF155
:1004100030000BF8010B200607D5A9F1010003E01D
:10042000200602D409F101008146A00502D50F99EA
:10043000681C0860B9696D1C0E9888478246002EBA
:10044000D1DC53E0002E51DDBAF1650F02D0BAF1D4
:10045000450F4BD1A00549D5B9696D1C24F44074F2
:10046000761E0E9888478246002E0CDD2B2804D07D
:10047000BAF12D0F07D144F48074B9696D1C0E9840
:1004800088478246761EE00501D52D2100E02B210C
:1004900008F8011BCDF82C8021E00DF12901761E12
:1004A00044F4007488450CD2AAF1300010F0FF002B
:1004B00088F8000002D10B99884509D908F1010894
:1004C00006E0E00501D5244801E042F20F708146C4
:1004D000B9696D1C0E98884782460F980560002EFA
:1004E00004DD504602F072FA0028D6D1F9690E9860
:1004F0008847FF208BF8000088F800000020069055
:1005000007904B466A4608A906A8FFF777FEA005A4
:1005100002D46FF001002AE714F0240F0AD0E0079C
:1005200014D1DDE906123868031D3B600068C0E99C
:1005300000120BE0DDE9060100F094FB0146E00744
:1005400004D13868021D3A600068016028460EE751
:10055000000014400000F03FF1D8FFFF70B50646E0
:1005600002F008F9046805460A220021304600F02E
:1005700051FA2C6070BD2DE9FE4F804681EA0300E0
:10058000C00F0C46009021F0004123F00045B8EB6D
:100590000200A94105D24046214690461C460B4622
:1005A000024623F00040104347D0270DC7F30A004E
:1005B000C3F30A510290401A019040286BDAC3F34A
:1005C000130040F4801B0098924620B10023D2EB28
:1005D000030A63EB0B0B01985946C0F140025046E9
:1005E00000F079F906460D4650465946019A00F04A
:1005F00091F910EB08006141002487EA115284EA66
:10060000E7731A4340D0009A62B3019A012A4FEA75
:10061000075215DC001B61EB02014FF0004202EAB9
:100620000752CDE90042001C41F5801132462B46AD
:1006300000F037FA03B0BDE8F08F40462146F9E7F5
:10064000001B61EB0201001C41F5801300185B41A7
:100650002018A2F5001747EB030140EAD570B61940
:100660006D4111E06D084FEA360645EAC0754FEA64
:100670000752001B61EB0201001C41F58011490883
:100680004FEA30000019514132462B4603B0BDE815
:10069000F04F00F0F7B90098012240000023D0EBA2
:1006A000020263EBE073009821464FEAE074B8EB76
:1006B000000061EB0401E9E783F000435BE781F0B0
:1006C000004158E72DE9FE4F81EA030404F000449D
:1006D00021F0004100944FF0000B23F0004350EA5A
:1006E00001045ED052EA03045BD0C3F30A54C1F3A1
:1006F0000A552C44A4F2F3340194A0FB0254C1F334
:10070000130141F48011C3F3130343F4801301FB7D
:10071000024400FB034E840A970A44EA815447EAE4
:100720008357A4FB076802958D0A05FB07854FEAEE
:10073000932C04FB0C542705029D4FEA065847EA08
:100740001637B5EB08056EEB070C870E920E47EADD
:10075000811742EA8312A7FB0201B6EB0B0164EB9F
:1007600000042B0D43EA0C335E1844EB1C50DA46B0
:100770005146E7FB0201C5F313044FEA0B3343EA8A
:1007800014534FEA0432019C43EA0603A4F10C041B
:100790000294009CCDE900B400F083F903B0BDE8F9
:1007A000F08F00200146F9E770B5C1F30A5201F05D
:1007B00000450024C1F3130140F2FF3341F48011DE
:1007C0009A4201DA002070BD40F233439A42A2F20D
:1007D000334203DC524200F08DF800E090402C439D
:1007E000F1D0404270BD000030B5041E71F100042C
:1007F00004DB4FF00044404264EB0101141E73F12E
:10080000000405DB1C464FF00043524263EB040337
:100810008B4208BF824230BD30B5041E71F1000426
:1008200004DB4FF00044404264EB0101141E73F1FD
:10083000000405DB1C464FF00043524263EB040307
:10084000994208BF904230BD30B50B4601460020AA
:100850002022012409E021FA02F59D4205D303FA82
:1008600002F5491B04FA02F52844151EA2F1010203
:10087000F1DC30BD2DE9F05F0546002092469B4635
:1008800088460646814640241BE0284641464746A6
:10089000224600F02FF853465A46C01A914110D311
:1008A00011461846224600F016F82D1A67EB01088B
:1008B0004F4622460120002100F00DF817EB0009F9
:1008C0004E41201EA4F10104DFDC484631462A4691
:1008D0004346BDE8F09F202A04DB203A00FA02F1EB
:1008E000002070479140C2F1200320FA03F319431E
:1008F00090407047202A04DB203A21FA02F00021C0
:10090000704721FA02F3D040C2F12002914008431F
:1009100019467047202A06DBCB17203A41FA02F02D
:1009200043EAE07306E041FA02F3D040C2F120024C
:100930009140084319467047426842B1016811F876
:10094000013B23B1521EC0E9001218467047012135
:10095000C160881E704742685AB1C368016843B9D4
:1009600083688B4205D0491E521CC0E9001200204A
:1009700070474FF0FF3070470FB4002300B589B0C7
:100980000CA900910B996FF00042CB601E4B0693AF
:100990001E4B07930423CDE901321D4A08920246FB
:1009A0006B460020FFF7BEFC09B05DF814FB70B584
:1009B00086B006464FF0FF300091CDE901010020DE
:1009C00015460C4604903246694604A8FFF7D4FF4A
:1009D00002460498211825B108B1084600E02046D7
:1009E0002860049800280DD0002A02DD0098884273
:1009F00008D0081B0094CDE901043246694604A8DA
:100A0000FFF7BAFF06B070BD3909000857090008A2
:100A1000C90C00082DE9F04791460F468046044670
:100A2000002614F8015B2DB100F04AF90068405D22
:100A3000C007F6D12B2D02D02D2D18D0641E4A46AA
:100A40003946204600F049F927B13968A14201D161
:100A5000C7F8008071054FF002040BD54042002812
:100A600003DD01F087FE0460A007BDE8F08746F4CF
:100A70008066E4E70028F8DA01F07CFE04606FF09D
:100A80000040F2E710B5141E73F1000408DA401CB0
:100A900041F1000192185B411A4301D120F001009D
:100AA00010BD2DE9F04D92469B4611B1B1FA81F28D
:100AB00002E0B0FA80F220329046FFF70CFF0446C5
:100AC0000F4640EA0A0041EA0B0153465A460843E2
:100AD00013D0114653EA010019D0C8F14002504624
:100AE000FFF708FF05460E46504659464246FFF7B7
:100AF000F2FE084305D0012004E020463946BDE857
:100B0000F08D0020054346EAE0762C4337430A98EF
:100B10006305E40AA0EB08000022FD0A44EA4754FA
:100B20000A3002D500200146E9E7010510196941A4
:100B3000DDE9084500196941BDE8F04DA2E72DE95E
:100B4000F04D81EA030404F0004B21F00045144607
:100B50004FF0000A23F0004150EA050220D054EA89
:100B600001021DD0C5F30A570246C5F31303C1F3B2
:100B70001300C1F30A5640F4801543F48013A7EB29
:100B80000608101BD64608F2FD3873EB050002D3A9
:100B900008F1010801E092185B41B8F1000F03DA97
:100BA00000200146BDE8F08D00204FF4801106467C
:100BB00084460EE0171B73EB050705D3121B63EB8E
:100BC000050306434CEA010C49084FEA300092182D
:100BD0005B4150EA0107EDD152EA030012D082EAEC
:100BE000040083EA0501084305D0101BAB4106D27F
:100BF0000122002306E000224FF0004302E06FF0E4
:100C0000010253101AEB06004CEB085110EB0A00DE
:100C100041EB0B01BDE8F04DFFF734BF0EB540F2DC
:100C2000334202920022CDE900221346FFF739FF3A
:100C300003B000BDC1F30A52C1F3130140F2FF3308
:100C400041F480119A4202DA00200146704740F2D6
:100C500033439A42A2F2334202DC5242FFF74ABEC9
:100C6000FFF739BE01F0004330B421F0004150EAF3
:100C7000010206D00A0DA2F56072C1F31301002A29
:100C800002DC30BC00207047440F44EAC104C100BC
:100C9000E01830BC00EBC25000F06EB8064C074DB7
:100CA00006E0E06840F0010394E80700984710343C
:100CB000AC42F6D3FFF71EFABC4D0008DC4D00082D
:100CC00000487047444D000810B50446FFF7F8FF90
:100CD0000068005D00F0010010BD2DE9F05F824664
:100CE0000078002715468B460AF10104B9463028E2
:100CF00001D09DB113E014F8010B0127782803D02F
:100D0000582801D045B10AE00DB1102D07D10027B8
:100D1000102514F8010B02E0082500E00A25002642
:100D2000B0460EE005FB080005FB06F1012701EBCC
:100D300010461FFA80F8B6F5803F00D3B94614F884
:100D4000010B294600F04FF80028EBDABBF1000F49
:100D500005D00FB1641E00E05446CBF80040B9F155
:100D6000000F06D001F006FD02210160C81EBDE89B
:100D7000F09F48EA0640FAE70029A8BF7047401CE8
:100D8000490008BF20F00100704710B4B0FA80FCA1
:100D900000FA0CF050EA010404BF10BC704749B1DE
:100DA000CCF1200421FA04F411FA0CF118BF01214E
:100DB00021430843A3EB0C01CB1D4FEA00614FEA2E
:100DC000102042BF002010BC704700EBC3501044FD
:100DD0000029A4BF10BC7047401C490008BF20F088
:100DE000010010BC70473A2800D2303820F02002B1
:100DF000412A01D3A2F13700884201D34FF0FF30DE
:100E0000704700BFFEE7704730B591B004460D460D
:100E1000402101A8FFF7A7F92B46224604A101A80B
:100E200001F078FC09A101A803F0CAF811B030BDA7
:100E300041542B43495053544152543D2254435042
:100E4000222C222573222C25730D0A00434F4E4E6F
:100E50004543540010B5044614B1012C0AD104E0F6
:100E600005A106A003F0ACF810BD03A107A003F094
:100E7000A7F8F9E70420F7E74F4B000041542B4354
:100E800049504D55583D300D0A00000041542B4348
:100E900049504D55583D310D0A00000010B527A0AE
:100EA00001F028FC02F0AAFA2AA001F023FC03E0DA
:100EB0004FF4FA7002F060FA00F03CF90028F7D025
:100EC0002D492EA001F016FC30A001F013FC03E028
:100ED0004FF4FA7002F050FA012003F0B5F8002840
:100EE000F6D0254925A001F005FC31A001F002FC57
:100EF00003E04FF4FA7002F03FFA0020FFF7AAFF78
:100F00000028F6D01C491DA001F0F4FB2DA130A053
:100F100001F0F0FB03E040F2DC5002F02DFA32A1C8
:100F200028A000F0E1F80028F5D0134913A001F043
:100F3000E1FB30A001F0DEFB10BD000065737038EE
:100F4000323636B3F5CABCBBAFBFAACABC2E2E2EF2
:100F50000D0A0000D5FDD4DAB2E2CAD46573703848
:100F6000323636CAC7B7F1D5FDB3A3D4CBD0D02E15
:100F70002E2E0D0A000000008400002065737038DA
:100F80003236363A2025730D0A000000C9E8D6C370
:100F9000B9A4D7F7C4A3CABDCEAA53544128C9E8FF
:100FA000B1B8C4A3CABD292E2E2E0D0A0000000020
:100FB000C9E8D6C3B5A5C1ACBDD3C4A3CABD2E2E46
:100FC0002E0D0A00486F6E6F723130300000000045
:100FD000D5FDD4DAC1ACBDD3776966693A202573F3
:100FE0002E2E2E0D0A00000043632E323436383583
:100FF0003040000065737038323636B3F5CABCBB7A
:10100000AFCDEAB3C92E2E2E0D0A000070B50446EE
:101010000D462A46214610A001F06CFB00BF294670
:101020002046FFF7F1FE0028F9D0174917A001F07C
:1010300061FB18A001F05EFB00BF00F087F80028FC
:10104000FBD0114911A001F055FB17A001F052FB94
:101050001FA001F04FFB70BDD5FDD4DAC1ACBDD3EC
:10106000746370B7FECEF1C6F72873657276657249
:101070005F69703A25732C20706F72743A2573295A
:101080002E2E2E0D0A0000008400002025730D0A6C
:1010900000000000D5FDD4DABFAAC6F4CDB8B4ABC9
:1010A0002E2E2E0D0A000000D2D1B3C9B9A6C1ACB4
:1010B000BDD3544350B7FECEF1C6F72CB2A2BFAA9F
:1010C000C6F4CDB8B4ABC4A3CABDA3A10D0A000039
:1010D000CFD6D4DABFC9D2D4BFAACABCCDA8D0C596
:1010E000C1CBA3A10D0A000030B591B004460D4656
:1010F000402101A8FFF737F82B46224604A101A89A
:1011000001F008FB08A101A802F05AFF11B030BDA0
:1011100041542B43574A41503D222573222C22250E
:1011200073220D0A000000005749464920474F54DA
:101130002049500010B502A102A002F041FF10BDED
:101140004F4B000041540D0A0000000010B508A1EB
:1011500008A002F035FF04460AA10BA002F030FF00
:101160002044C4B2022C01D1012010BD0020FCE7B4
:101170004F4B000041542B4349504D4F44453D31A6
:101180000D0A00003E00000041542B4349505345D6
:101190004E440D0A0000000010B535A036A188426B
:1011A0000AD103220221084601F0FEF8042211466A
:1011B000022001F0F9F827E02DA031A188420AD1E0
:1011C00005220221084601F0EFF806220421022040
:1011D00001F0EAF818E026A02BA188420AD10722E4
:1011E0000221084601F0E0F808220421022001F063
:1011F000DBF809E009220221084601F0D5F80A22AD
:101200000421022001F0D0F80F220221032001F076
:10121000CBF810220421032001F0C6F81222062187
:10122000032001F0C1F813220821032001F0BCF8CB
:1012300014220E21032001F0B7F80F22022104200E
:1012400001F0B2F811220421084601F0ADF8122293
:101250000621042001F0A8F813220821042001F03F
:10126000A3F814220E21042001F09EF810BD000006
:101270007A6875686169000066757A686F75000044
:101280006A696E616E00000071696E6764616F006B
:101290002DE9F8470346002294466EE14FF001081D
:1012A00008FA02F4D1F8008008EA0400A0427DD1D7
:1012B000DFF8DCA2D1F80480A8EB0A09D0453AD0C7
:1012C00014DCB8F1030F50D009DCB8F1000F31D0B5
:1012D000B8F1010F1CD0B8F1020F49D120E0B8F1EC
:1012E000110F18D0B8F1120F42D11EE0B9F5881FC6
:1012F00025D006DCB9F5803F20D0B9F5801F37D165
:101300001AE0B9F5001F18D0B9F5041F30D117E065
:10131000D1F80CC02DE0D1F80C8008F1040C28E0C5
:10132000D1F80C8008F1080C23E0D1F80C8008F10A
:101330000C0C1EE000BF00BF00BF00BF00BF00BF1D
:10134000D1F80880B8F1000F02D14FF0040C0BE087
:10135000D1F80880B8F1010F03D14FF0080C1C61DF
:1013600002E04FF0080C5C6103E04FF0000C00E07D
:1013700000BF00BFFF2801D8984601E003F1040830
:101380004646FF2802D84FEA820803E0A2F1080887
:101390004FEA88084746D6F800804FF00F0909FA4F
:1013A00007F928EA09080CFA07F900E088E048EA9A
:1013B0000908C6F80080D1F8048008F08058B8F118
:1013C000805F7DD100BFDFF8CC81D8F8188048F06D
:1013D0000108DFF8C091C9F81880C846D8F818800D
:1013E00008F00108CDF8008000BF00BF4FEAB9380F
:1013F0004FEA920958F829504FEA82784FEA187953
:101400004FF00F0808FA09F825EA0805DFF8888187
:10141000434502D14FF0000816E0DFF880814345D4
:1014200002D14FF001080FE0DFF87481434502D18B
:101430004FF0020808E0DFF86C81434502D14FF01D
:10144000030801E04FF004084FEA82794FEA197966
:1014500008FA09F848EA0505DFF84C814FEA9209D5
:1014600048F82950D1F8048008F48018B8F5801F96
:101470000AD1DFF83881D8F8008048EA0008DFF8A0
:101480002C91C9F8008009E0DFF82081D8F80080AD
:1014900028EA0008DFF81491C9F80080D1F8048028
:1014A00008F40018B8F5001F10D1DFF8008108F12A
:1014B0000408D8F8008048EA0008DFF8F09000E05F
:1014C0005AE009F10409C9F800800DE0DFF8DC807A
:1014D00008F10408D8F8008028EA0008DFF8CC906A
:1014E00009F10409C9F80080D1F8048008F4003833
:1014F000B8F5003F0ED1DFF8B480A8F10408D8F8A1
:10150000008048EA0008DFF8A490A9F10409C9F8AE
:1015100000800DE0DFF89480A8F10408D8F800807E
:1015200028EA0008DFF88490A9F10409C9F80080CE
:10153000D1F8048008F48038B8F5803F0ED1DFF888
:101540006C80A8F10808D8F8008048EA0008DFF8A5
:101550005C90A9F10809C9F800800DE0DFF84C8023
:10156000A8F10808D8F8008028EA0008DFF83C90C5
:10157000A9F10809C9F80080521CD1F8008028FAA6
:1015800002F8B8F1000F7FF489AEBDE8F8870000DB
:10159000000011100010024000080140000C014042
:1015A00000100140001401400800014008040140FF
:1015B000024693680B400BB1012000E00020704709
:1015C0000AB1016101E00B04036170470148006842
:1015D00070470000000000200348006803490978B4
:1015E00008440149086070470000002008000020FE
:1015F00010B50848006840F0100006490860032054
:1016000000F080F80F2000F007F800F02BF8002021
:1016100010BD00000020024070B504460E4800785E
:101620004FF47A71B1FBF0F00C490968B1FBF0F5A9
:10163000284600F0E5FB08B1012070BD102C07D250
:1016400000222146501E00F01EF80548046001E00B
:101650000120F2E70020F0E7080000202800002029
:1016600004000020704701460846002809DB00F00E
:101670001F0301229A4043099B0003F1E023C3F8B2
:10168000002100BF70472DE9F05F80460D461646E9
:10169000002701F053F8074639462A46334601F041
:1016A0000700C0F1070ABAF1040F02D94FF0040A8B
:1016B00001E0C0F1070AD14600F1040ABAF1070FB0
:1016C00002D24FF0000A01E0A0F1030AD4464FF025
:1016D000010A0AFA09FAAAF1010A0AEA020A0AFA4E
:1016E0000CFA4FF0010B0BFA0CFBABF1010B0BEA00
:1016F000030B4AEA0B042146404601F027F8BDE8F7
:10170000F09F000000BF00F00702064B19684FF67B
:10171000FF031940044B0B4343EA0221014B1960BC
:1017200000BF70470CED00E00000FA0570B50446FC
:101730000D460CB9012070BD5A48006800F0070042
:10174000A8420ED25748006820F0070028435549A8
:1017500008600846006800F00700A84201D0012098
:10176000E9E7207800F0020002281DD1207800F07F
:101770000400042805D14C48406840F4E0604A4920
:101780004860207800F00800082805D146484068E5
:1017900040F46050444948604348406820F0F000FD
:1017A000A168084340494860207800F0010078B300
:1017B0006068012806D13C48006800F4003090B908
:1017C0000120B8E76068022806D13748006800F0B9
:1017D000007040B90120AEE73348006800F0020015
:1017E00008B90120A7E73048406820F0030061688D
:1017F00008432D494860FFF7E9FE064609E0FFF778
:10180000E5FE801B41F28831884202D9032092E72D
:1018100007E02548406800F00C006168B0EB810FDC
:10182000EDD12048006800F00700A8420ED91D48FD
:10183000006820F0070028431A490860084600683D
:1018400000F00700A84201D0012074E7207800F0E2
:101850000400042807D11448406820F4E060E168DF
:10186000084311494860207800F00800082808D192
:101870000D48406820F46050216940EAC1000A49DF
:10188000486000F03FF808494968C1F30311074A6E
:10189000515CC8400649086006480068FFF7BCFE76
:1018A000002048E70020024000100240AA4C000837
:1018B0002800002004000020014800687047000054
:1018C0002800002000B5FFF7F7FF04494968C1F37D
:1018D0000221034A515CC84000BD000000100240D4
:1018E000BA4C000800B5FFF7E7FF04494968C1F3A7
:1018F000C221034A515CC84000BD000000100240F4
:10190000BA4C000870B500210022002400230020FA
:10191000134D696801F00C05F5B1042D02D0082DB6
:1019200019D101E00F4819E00F4DC1F38346AB5DBB
:1019300001F4803555B10A4D6D68C5F340450B4E35
:10194000725D084D5D43B5FBF2F402E0084D03FB08
:1019500005F4204602E000BF024800BF00BF70BD92
:101960000010024000127A00E8430008F843000823
:1019700000093D00F8B504460CB90120F8BD2078F7
:1019800000F00100002878D0F848406800F00C0012
:1019900004280CD0F548406800F00C00082811D14C
:1019A000F248406800F48030B0F5803F0AD1EF483B
:1019B000006800F4003000285FD0606800285CD127
:1019C0000120DBE700BF6068B0F5803F06D1E74843
:1019D000006840F48030E549086028E0606858B944
:1019E000E248006820F48030E0490860084600685A
:1019F00020F4802008601AE06068B0F5A02F0BD1B9
:101A0000DA48006840F48020D84908600846006839
:101A100040F4803008600AE0D448006820F4803048
:101A2000D24908600846006820F48020086000BFA2
:101A3000606888B1FFF7CAFD054606E0FFF7C6FDFE
:101A4000401B642801D9032098E7C848006800F4C7
:101A500000300028F2D010E0FFF7B8FD054606E0A0
:101A6000FFF7B4FD401B642801D9032086E7BF4877
:101A7000006800F400300028F2D1207800F0020065
:101A8000022857D1B948406800F00C0050B1B7485F
:101A9000406800F00C00082818D1B448406800F4F1
:101AA000803098B9B148006800F0020020B1206988
:101AB000012801D0012061E7AC48006820F0F8005F
:101AC000616940EAC100A949086033E02069E8B1D2
:101AD0000120A7490860FFF779FD054606E0FFF7FA
:101AE00075FD401B022801D9032047E79F48006885
:101AF00000F002000028F2D09C48006820F0F800B6
:101B0000616940EAC1009949086013E000209849E2
:101B10000860FFF75BFD054606E0FFF757FD401B39
:101B2000022801D9032029E79048006800F002004C
:101B30000028F2D1207800F0080008282DD1A069F3
:101B4000B8B101208B490860FFF740FD054606E06B
:101B5000FFF73CFD401B022801D903200EE7834814
:101B6000406A00F002000028F2D0012000F088FC5A
:101B700013E000207F490860FFF728FD054606E0D6
:101B8000FFF724FD401B022801D90320F6E6774821
:101B9000406A00F002000028F2D1207800F0040032
:101BA000042873D100277148C06900F0805070B9D3
:101BB00000BF6E48C06940F080506C49C86108465B
:101BC000C06900F08050009000BF00BF01276A4844
:101BD000006800F48070B0B96748006840F4807015
:101BE00065490860FFF7F2FC054606E0FFF7EEFCEA
:101BF000401B642801D90320C0E65F48006800F458
:101C000080700028F2D000BFE068012806D1574854
:101C1000006A40F001005549086227E0E06858B9C1
:101C20005248006A20F00100504908620846006AE4
:101C300020F00400086219E0E06805280BD14B4849
:101C4000006A40F00400494908620846006A40F012
:101C5000010008620AE04548006A20F0010043499B
:101C600008620846006A20F00400086200BFE068CD
:101C7000A0B1FFF7ABFC054609E0FFF7A7FC401B4E
:101C800041F28831884202D9032077E622E03748C2
:101C9000006A00F002000028EFD012E0FFF796FC87
:101CA000054608E0FFF792FC401B41F2883188426C
:101CB00001D9032062E62D48006A00F002000028E6
:101CC000F0D1012F05D12948C06920F08050274963
:101CD000C86100BFE069C8B32448406800F00C0048
:101CE000082860D0E069022848D100202049086611
:101CF000FFF76CFC054606E0FFF768FC401B022876
:101D000001D903203AE61948006800F00070002865
:101D1000F2D1206AB0F5803F07D11448406820F422
:101D20000030A168084311494860D4E9080108431C
:101D30000E49496821F4741108430C494860012098
:101D40000B490866FFF742FC054607E03DE0FFF758
:101D50003DFC401B022801D903200FE60348006820
:101D600000F000700028F2D02FE0000000100240C8
:101D700000004242800442420070004000201449AA
:101D80000866FFF723FC054606E0FFF71FFC401B33
:101D9000022801D90320F1E50E48006800F0007028
:101DA0000028F2D111E0E069012800D1E6E50948F8
:101DB000466806F48031206A814204D106F470112D
:101DC000606A814201D00120D8E50020D6E50000FC
:101DD0000000424200100240042808D14FF0E021E8
:101DE000096941F004014FF0E022116107E04FF072
:101DF000E021096921F004014FF0E02211617047F0
:101E000070B504462546681EB0F1807F01D30120DD
:101E10000FE0681E4FF0E02148610F214FF0FF30C6
:101E200000F094FC00204FF0E02188610720086159
:101E3000002070BD10B504460CB9012010BDA0698A
:101E400000B100E000BF94F8410028B9002084F8F8
:101E50004000204600F02AF8242084F84100206841
:101E6000C06820F400502168C860204600F04EFB96
:101E70002068006920F4904021680861206840696A
:101E800020F02A00216848612068C06840F40050B2
:101E90002168C86000206064202084F8410084F834
:101EA00042000020606300BFC8E7000010B586B0A4
:101EB00004463F49206888423AD100BF3D48C06986
:101EC00040F400303B49C8610846C06900F4003066
:101ED000019000BF00BF00BF0846806940F00400C9
:101EE00088610846806900F00400019000BF00BFCF
:101EF000042002900220039001200490032005900A
:101F000002A92D48FFF7C4F9082002900020039091
:101F100002A92948FFF7BCF90520FFF7F3FB0122CE
:101F200011462620FFF7AFFB2620FFF79CFB3CE085
:101F300022492068884238D100BF1E48806940F499
:101F400080401C4988610846806900F48040019007
:101F500000BF00BF00BF0846806940F004008861F0
:101F60000846806900F00400019000BF00BF4815DA
:101F7000029002200390012004900320059002A902
:101F80000D48FFF785F94FF4806002900020039020
:101F900002A90948FFF77CF9012211462520FFF725
:101FA00072FB2520FFF75FFB00BF06B010BD0000ED
:101FB0000044004000100240000801400038014089
:101FC0002DE9F84F04460E46174699464FF0000A91
:101FD00094F8420020284FD106B117B90120BDE87E
:101FE000F88F00206064222084F8420000202063E3
:101FF000FFF7ECFA8246A785E785A068B0F5805F19
:1020000004D1206910B90025B04602E035464FF0F2
:10201000000829E05346002220212046CDF80090F8
:1020200000F0F2FA08B10320D9E745B9206840680A
:10203000C0F30800A8F8000008F1020811E0A06849
:10204000B0F5805F03D0A06828B9206918B920686E
:102050004068287004E02068406800F07F00287025
:102060006D1CE08D401EE085E08D0028D2D120203F
:1020700084F842000020B2E70220B0E72DE9F84FD3
:1020800004460E46174699464FF0000A94F8410060
:1020900020284AD106B117B90120BDE8F88F0020E9
:1020A0006064212084F84100FFF790FA8246A784FB
:1020B000E784A068B0F5805F04D1206910B90025DD
:1020C000B04602E035464FF000081BE053460022C0
:1020D00080212046CDF8009000F096FA08B1032048
:1020E000DBE745B9B8F80000C0F308002168486094
:1020F00008F1020803E02878216848606D1CE08C34
:10210000401EE084E08C0028E0D1534600224021AC
:102110002046CDF8009000F077FA08B10320BCE724
:10212000202084F841000020B7E70220B5E700BF77
:10213000FEE700BFFEE7704770B500240EE0002107
:10214000204600F0E6F8002504E0002000F086F9C3
:10215000681CC5B2802DF8DB601CC4B2082CEEDB15
:1021600070BD000000B585B000BF1248806940F026
:102170000800104988610846806900F00800009056
:1021800000BF00BFC02001901120029000200390EA
:102190000320049001A90848FFF77AF801224021A2
:1021A0000548FFF70DFA012280210348FFF708FADE
:1021B00005B000BD00100240000C014070B505469E
:1021C000002413E08020204100EA050280210E480F
:1021D000FFF7F6F9012240210B48FFF7F1F9002241
:1021E00040210948FFF7ECF9601CC4B2082CE9DB78
:1021F000012240210448FFF7E3F900224021024870
:10220000FFF7DEF970BD0000000C014010B501229F
:1022100080210948FFF7D4F9012240210648FFF741
:10222000CFF9002280210448FFF7CAF9002240219B
:102230000148FFF7C5F910BD000C014010B50022A0
:1022400080210748FFF7BCF9012240210448FFF72D
:10225000B7F9012280210248FFF7B2F910BD000052
:10226000000C014070B5002406E0002500E06D1C64
:10227000B5F57A7FFBD3641CB4F57A7FF5D3FFF70D
:1022800071FFAE2000F0DAF8D52000F0D7F88020FA
:1022900000F0D4F8A82000F0D1F83F2000F0CEF8EC
:1022A000D32000F0CBF8002000F0C8F8402000F068
:1022B000C5F8A12000F0C2F8C82000F0BFF8DA206D
:1022C00000F0BCF8122000F0B9F8812000F0B6F858
:1022D000CF2000F0B3F8D92000F0B0F8F12000F0E2
:1022E000ADF8DB2000F0AAF8302000F0A7F8A42019
:1022F00000F0A4F8A62000F0A1F88D2000F09EF8D0
:10230000142000F09BF8AF2000F098F8FFF714FFBE
:1023100070BD70B505460C4645F0B00000F08EF873
:10232000102141EA141000F089F804F00F0000F0C9
:1023300085F870BD2DE9F04105460E461746721E20
:10234000D206110E6A1E5206100EFFF7E2FF00249D
:1023500009E0A7F12001134A02EB0111085D00F02A
:102360007DF8601CC4B2082CF3DB721ED206110E7D
:102370006A1E012303EB4202D0B2FFF7CAFF00241A
:102380000BE0A7F12001074A02EB011204F108015A
:10239000505C00F063F8601CC4B2082CF1DBBDE8AF
:1023A000F0810000BA4600082DE9F04105460E46CE
:1023B0001746721ED206110E6A1E5206100EFFF745
:1023C000A8FF002407E0124901EB4711085D00F067
:1023D00045F8601CC4B2102CF5DB721ED206110E3B
:1023E0006A1E012303EB4202D0B2FFF792FF0024E2
:1023F00009E0074901EB471204F11001505C00F0BD
:102400002DF8601CC4B2102CF3DBBDE8F081000095
:10241000FA4300082DE9F04107460E461546002410
:1024200007E02A5D3019C1B23846FFF783FF601C10
:10243000C4B2285D0028F4D1BDE8F08110B504468F
:10244000FFF7E4FE7820FFF7B9FE0020FFF7B6FEA5
:102450002046FFF7B3FEFFF7F1FE10BD10B50446AE
:10246000FFF7D4FE7820FFF7A9FE4020FFF7A6FE75
:102470002046FFF7A3FEFFF7E1FE10BD7047000006
:1024800008B508490968C9084FF47A72B1FBF2F13E
:102490004143009100BF00BF00994A1E00920029ED
:1024A000F9D108BD2800002010B54FF48061034821
:1024B000FDF759FE00200249088010BD840000206D
:1024C00020000020704710B5FFF786F810BD704758
:1024D00010B50C480C4908604FF4165048600C21A8
:1024E0000948416100210161C1608160FFF7A2FCE0
:1024F00005480068C06840F0200003490968C860CA
:1025000010BD0000003801403C00002070B50446BA
:102510002168096921F44051E26811432268116180
:102520002269A1681143626941EA02052168C9680C
:1025300041F20C62914329432268D16021684969C4
:1025400021F44071A2691143226851612D4A21682A
:10255000914202D1FFF7C6F901E0FFF7B3F900EBB2
:10256000C00101EB001162689200B1FBF2F100EBD7
:10257000C00202EB001263689B00B2FBF3F264231B
:10258000B2FBF3F202EBC20303EB0212A1EB8201F6
:10259000322202EB01116422B1FBF2F101F0F001F1
:1025A00000EBC00202EB001263689B00B2FBF3F287
:1025B0006423B2FBF3F201EB021200EBC00101EB6A
:1025C000001163689B00B1FBF3F100EBC00303EB68
:1025D00000136668B600B3FBF6F36426B3FBF6F3AC
:1025E00003EBC30606EB0313A1EB8301322303EBDA
:1025F00001116423B1FBF3F101F00F0111442268D2
:10260000916070BD003801402DE9F04104460D464F
:1026100017469846069E34E0701C88B32EB1FEF72C
:10262000D5FFA0EB0800B0422BD900BF00BF216846
:102630000C3151E8001F21F4D07021680C3141E8C1
:102640000002002AF3D100BF00BF00BF216814318F
:1026500051E8001F21F001002168143141E8000217
:10266000002AF3D100BF202084F8410084F8420002
:1026700000BF002084F8400000BF0320BDE8F081C7
:10268000FFE7206800682840A84201D1012000E04F
:102690000020B842C0D00020F0E7000010B510487C
:1026A00000680068C0F34010C0B10E480088B0F563
:1026B000806F02DB00200B4908804FF47A730122FF
:1026C00009490748FFF77CFC07480178054802885C
:1026D0000088401C034B18800448815410BD000042
:1026E000840400202000002024000020840000201A
:1026F00000BFFEE70FB4054B10B503A9044A0298CA
:1027000000F06CF910BC5DF814FB000039340008CF
:102710002C0000200FB4084B10B504A902AA03989E
:1027200000F05CF9044602A9002000F0DAFC204623
:1027300010BC5DF814FB0000E3300008024800689C
:10274000C0F30220704700000CED00E010B5002837
:1027500004DB0A07130E054A135406E00A07140E99
:10276000034A00F00F031B1FD45410BD00E400E027
:1027700018ED00E0004870473800002030B528B15F
:10278000144C031F002021680A4605E0084630BDAE
:102790009A4203D810465268002AF9D1002800D086
:1027A00041680BD00468A3EB0005A54204D11B6867
:1027B0001C440346046002E0436000E023603AB139
:1027C0001C68D51AA54203D115682C441C605268B8
:1027D0005A6030BD300000202DE9F04782460F4C92
:1027E00010480D4E0E4F001B4FF0000820F007055B
:1027F0004FF0010900221146504600F08FFF0028DB
:1028000002D1306810B10020BDE8F0873C60C4E917
:102810000058C6F80090EDE7340000203C09002085
:10282000300000203815002002E008C8121F08C13F
:10283000002AFAD170477047002001E001C1121F41
:10284000002AFBD1704700002DE9FF5F82B0002114
:10285000DDE90430020DDDF840B0034318D044F642
:102860001050A2F2FF3242431514119801281FD0D4
:10287000A5EB0B00401C5FEA000A4FF000064E4F2C
:10288000DFF83891B046504615D5CAF1000413E080
:10289000119801244AA3012801D16FEA0B01029883
:1028A000119AC0E90031C0E9024206B0BDE8F09FCC
:1028B000CBF10000DFE704460021404A491842EB13
:1028C0000450CDE9001012E0E00707D032463B4645
:1028D00040464946FDF7F6FE8046894632463B466D
:1028E00010461946FDF7EEFE06460F466410002C12
:1028F000EAD1DDE90401DDE90023BAF1000F06DACF
:10290000FDF7E0FE42464B46FDF7DCFE05E0FEF734
:1029100016F942464B46FEF712F904460E460022CF
:10292000284BFDF779FF03D84FF0FF30014607E051
:102930000022254B20463146FDF71DFEFEF77AF9B1
:10294000102409E0002C0ADB0A220023FDF792FF85
:10295000039B30321A55641E50EA0102F2D1641C06
:10296000039AC4F111031444119A012A03D00122DD
:1029700008430DD10AE0084304D000204FF0110BAA
:10298000119072E7A3EB0B056D1E0DE05B4504DDB6
:102990004FF0000205F1010504E003DA4FF00002F8
:1029A000A5F10105002AECD002981199C0E9023185
:1029B000C0E9004579E70000000014400000F03F46
:1029C000300000000000F0430000E03F30380A28EB
:1029D00001D2012070470020704700002DE9FF4F11
:1029E00095B09A46884606460025EEE1252877D11F
:1029F00000242746F94A0121039400E0044316F815
:102A0000013F203B01FA03F01042F7D130782A2829
:102A100011D06FF02F033078A0F13002092A16D8B8
:102A2000039A44F0020402EB820203EB42021044D8
:102A3000761C0390EFE758F8042B0392002A03DA80
:102A4000504244F40054039044F00204761C307861
:102A50002E2816D116F8010F44F004042A280DD0B0
:102A60006FF02F023078A0F13003092B09D807EB63
:102A7000870302EB4303C718761CF3E758F8047B7F
:102A8000761C30786C280FD006DC4C2817D06828CC
:102A90000DD06A2814D104E0742810D07A280FD100
:102AA0000DE044F400140AE044F4801401E044F41E
:102AB00040147278824202D104F58014761C761C90
:102AC000307866280BD013DC582877D009DC002832
:102AD00075D04528F6D04628F4D047281AD193E17E
:102AE00018E0632835D0642879D0652812D18BE1AD
:102AF000702873D008DC6728F1D069286FD06E2861
:102B00000DD06F2806D1ACE073282CD0752874D076
:102B1000782853D05246179990476D1C54E1C4F35E
:102B20000250022809D003280DD0D8F8001004283C
:102B30000DD00D6008F1040846E1D8F80010EA173E
:102B4000C1E90052F6E7D8F800100D80F2E70D70E9
:102B5000F0E718F8041B8DF8001000208DF8010034
:102B6000EB46012003E058F804BB4FF0FF3061074B
:102B70004FF0000102D40DE009F101018946B9428C
:102B80000FDA8145F8DB1BF809100029F4D108E0C1
:102B900009F1010189468142FADB1BF8091000297D
:102BA000F6D103985346A0EB090721463846179AF9
:102BB00000F080FA284400EB090507E044E008E152
:102BC0000DE01BF8010B524617999047B9F1010926
:102BD000F7D2534621463846179AF2E039E00A21E7
:102BE000C4F302524FF0000B0091022A06D058F8AD
:102BF000040BC117032A09D00AE023E008F10700FB
:102C000020F00702F2E80201904605E000B2C11789
:102C1000042A01D140B2C117002906DA0A46002170
:102C2000404261EB02012D2202E0220504D52B2255
:102C30008DF80420012203E0E20701D02022F7E70B
:102C4000914657E00A2100E010214FF0000B00915F
:102C50000BE010214FF0000B44F004040827009112
:102C600003E008204FF0000B0090C4F30252022A48
:102C700005D058F8040B0021032A08D008E008F119
:102C8000070020F00702F2E80201904603E080B25C
:102C9000042A00D1C0B24FF0000922072AD53278A9
:102CA000702A07D0DDF800C08CF0100C5CEA0B0C29
:102CB00005D00EE040228DF80420012208E050EA01
:102CC000010306D030238DF804308DF80520022250
:102CD0009146009B83F0080353EA0B030AD150EAA4
:102CE000010201D1620705D530228DF804204FF092
:102CF00001097F1E3278582A04D039A20C920CAAFE
:102D000002920BE03BA2F9E75B46009AFDF7B2FDA9
:102D10000C9B9B5C029A521E0292137050EA0102B5
:102D2000F2D1029804A9081A00F1200B600702D51D
:102D300024F4803400E001275F4502DDA7EB0B009F
:102D400000E0002000EB0B01009003984944401A7A
:102D50000390E00306D453462146179A039800F0E7
:102D6000A9F90544002706E001A85246C05D17995D
:102D700090476D1C7F1C4F45F6DBE0030CD5534696
:102D80002146179A039800F095F9054404E0302095
:102D90005246179990476D1C0099481E00900029D3
:102DA000F5DC08E00298029952460078491C02912D
:102DB000179990476D1CBBF10001ABF1010BF1DCE1
:102DC0005BE100F065F90544761C307800287FF45B
:102DD0000DAE19B02846BDE8F08F000009280100AB
:102DE0003031323334353637383961626364656681
:102DF0000000000030313233343536373839414243
:102E00004344454600000000600700D4062708F14F
:102E1000070020F00700F0E80223804603F0004C92
:102E20005FEA0C0001D097A009E0200501D596A02B
:102E300005E0E00701D095A001E0AFF24C0013904F
:102E4000307823F0004365280CD006DC452809D0F3
:102E500046281DD047287FD13BE0662818D0672838
:102E60007AD136E00021112F01DB112000E0781C1F
:102E7000CDE9000104A90CA8FFF7E6FCDDE90D018E
:102E80000C9A4FF0000B07F10109109200914EE0EF
:102E90004FF000400097CDE9011004A90CA8FFF7FE
:102EA000D3FCDDE90D020C9B0F994FF0000B91460E
:102EB0001093009211B9791C00EB0109B7EB0900DE
:102EC00003D4C0F1FF3B07F10109A9EB0700019012
:102ED00042E0012F00DA01270021112F01DD11202E
:102EE00000E03846CDE9000104A90CA8FFF7ACFCCE
:102EF000DDE90D010C9A00914FF0000BB9461092DC
:102F000021070FD4009A4A4503DA914601E0A9F15E
:102F10000109B9F1010F05DD109AA9F10101515C18
:102F20003029F4D0B84202DA10F1040F03DA01219B
:102F3000CDE9011010E0002803DC8344A9EB000177
:102F400002E0411C494500DD8946A0EB0B00401C16
:102F500001904FF000400290200705D401984845A9
:102F600002DB4FF0FF30019000208DF84B000298FB
:102F70000DF14B07B0F1004F25D002200C902B2013
:102F80000D90029800280CDA404202902D200D90FE
:102F900007E00A210298FDF757FC3031029007F84C
:102FA000011D0C99481E0C900029F2DC02980028A3
:102FB000EFD1791E0D980870307800F0200040F0B5
:102FC000450007F8020D11A8C01BC01D0290139800
:102FD000007800B1012000EB0901019801EBE071DC
:102FE000029801440398401A401E0390E00306D45F
:102FF00053462146179A039800F05CF8054413984D
:10300000007818B15246179990476D1CE00323D5FC
:1030100053462146179A039800F04CF805441BE0EC
:10302000BBF1000F07DB0098584504DD1098179995
:1030300010F80B0001E01799302052469047019894
:103040000BF1010B401E05F10105019004D12E206A
:103050005246179990476D1CB9F10001A9F1010979
:10306000DEDC05E017F8010B5246179990476D1CFE
:103070000299481E02900029F4DC53462146179A13
:1030800003989EE62D0000002B00000020000000A9
:103090002DE9F041044600251E461746880404D455
:1030A00005E039462020B0476D1C641EF9D528463E
:1030B000BDE8F0812DE9F041044600251E4690460A
:1030C000C80301D5302700E02027880404D505E097
:1030D00041463846B0476D1C641EF9D52846BDE808
:1030E000F0810A68531C0B6010707047014609B1EB
:1030F000086808B90020704719B1D1E90120904251
:1031000001D30846F7E702E08868401C886041B1B7
:10311000D1E90120904204D28A680868805C2028A6
:10312000F2DDD1E90120904202D18868401E88601A
:103130000846E0E770B50446002526E02568A0892A
:1031400000F4807020B9A06810B1A068FFF7F2FF0A
:10315000A08900F4807038B9206928B10C4A206930
:103160005168884700202061A08900F4007038B9B8
:10317000206A28B1064A206A5168884700202062E8
:1031800003484168204688472C46002CD6D170BDA4
:103190001400002070B505460C46002C01DA002012
:1031A00070BD2146284600F04FF9F9E770B5044696
:1031B0000D4600222946204600F057F970BD70B533
:1031C000044628202168884705461DB12821284645
:1031D000FCF7C9FF284670BD10B504460022114611
:1031E000204600F06BF810BD2DE9F0478AB0044688
:1031F0000E46154698461C2103A8FCF7B4FF00278D
:1032000000202C490860486004B106B932E00394FC
:10321000049600200590284A07CA07AB07C3264832
:10322000FFF7CDFF074607B924E003A800F0C6FF6B
:103230008246FFF75BFF81464946384600F0ECFDC9
:1032400000B917E0B8F1000F0BD003A8FFF74EFF4D
:10325000DDE90410884203D205990398405C00B16F
:1032600008E01DB1059903980844286038460AB063
:10327000BDE8F08717B13846FFF75CFFC4B1019491
:1032800000200290DDE90410884202D205980290E5
:1032900004E0049810B10498401E02901DB1DDE9CD
:1032A0000101084428600348DDE9011206C000BF9F
:1032B0000020DCE70C000020140000202DE9F04184
:1032C00004460D46164614B90020BDE8F08120469C
:1032D000FCF766FF471C33462A4639462046FFF76F
:1032E00083FFF2E770B504460D4604B10DB9012025
:1032F00070BDAC4201D10020FAE705E0207808B9A2
:103300000020F5E7641C6D1C2078FCF70DFF0646D5
:103310002878FCF709FF8642F0D02078FCF704FFFC
:1033200006462878FCF700FF301AE1E770B504463E
:103330000648FCF735FF05462A4604492046FCF7B7
:10334000F9FE0248FCF72CFF80B270BD840000201B
:1033500010B5044600204FF0E0210861FEF73CFD67
:103360002046E11704EB5171C1F3CF01014A1180EE
:1033700010BD00000A00002070B504464FF47A70BA
:1033800094FBF0F594FBF0F100FB114603E00748D5
:1033900000F00EF86D1E002DF9D12EB14FF47A71A8
:1033A00006FB01F000F004F870BD000040420F0081
:1033B0000146114A12884A434FF0E0235A61002225
:1033C0009A611A46126942F001021A6100BF4FF079
:1033D000E022106900F001021AB100F48032002AE4
:1033E000F5D04FF0E022126922F001024FF0E02305
:1033F0001A6100229A6170470A00002010B50C483B
:103400000C4908604FF4165048600C21094841618E
:1034100000210161C1608160FEF70CFD0548006874
:10342000C06840F0200003490968C86010BD000072
:10343000004400408404002070B504460D46E0B20C
:1034400000F0EEFD204670BD02460B4600210AB991
:1034500000207047916801E05B1E096809B1002BEC
:10346000FAD10846F5E72E2070472DE9F0410546D0
:103470000E461746002405B116B90020BDE8F081BC
:10348000AC685FB100E024688CB1206A78B1304646
:10349000216AFCF78CFE0028F5D108E000E02468E2
:1034A0002CB13046216AFFF71DFF0028F7D10CB17F
:1034B000206A08B90020E1E72046DFE72DE9F04F58
:1034C00087B00024A5E04FF480615548FCF74BFE1F
:1034D000204600F0DDF8204600F0DAF801287DD122
:1034E0004F48FFF723FF4E48FFF776FE06904DA1A9
:1034F0000698FFF75BFE059000210598FFF74AFE4E
:1035000004904AA10498FFF751FE0390002103980C
:10351000FFF740FE029047A10298FFF747FE0546DD
:103520002E69C4EBC40101EB8101444A881831467D
:10353000FCF74BFEC4EBC40000EB80003F4A81184F
:103540003FA0FFF7D7F841A10298FFF72FFE0746EB
:10355000D7F81080C4EBC40101EB8101374A114454
:1035600001F114004146FCF730FEC4EBC40000EB4F
:103570008000324A104400F1140137A0FFF7BAF876
:1035800039A10298FFF712FE8146D9F810A0C4EBCA
:10359000C40101EB8101294A114401F1190051468E
:1035A000FCF713FEC4EBC40000EB8000234A104478
:1035B00000F119012EA0FFF79DF830A10298FFF746
:1035C000F5FD8346DBF810000190C4EBC40101EB6C
:1035D00081011A4A114401F11E0000E017E001992F
:1035E000FCF7F3FDC4EBC40000EB8000134A104469
:1035F00000F11E0122A0FFF77DF824A0FFF77AF862
:103600000698FFF797FD6420FFF7B6FE00BF601C29
:10361000C4B2032CFFF657AF07B0BDE8F08F00002F
:10362000CC040020726573756C7473006461696CFE
:10363000790000006461746500000000CC0800207F
:10364000646174653A25730D0A000000636F646558
:103650005F64617900000000636F64655F64617995
:103660003A25730D0A0000006869676800000000D1
:10367000686967683A25730D0A0000006C6F77006F
:103680006C6F773A25730D0A000000000D0A0000E8
:1036900010B5C2B004464FF4807102A8FCF763FD78
:1036A00001200DA30EA21349CDE9004002A8FFF7A7
:1036B00031F811A102A800F083FC012806D11049BD
:1036C00010A0FFF717F8012042B010BD0FA0FFF7C0
:1036D00011F80220F8E700007A6875686169000057
:1036E000535730545969733543316B755F5359548F
:1036F0004F000000484D0008726573756C747300CC
:103700008400002025730D0A00000000CAFDBEDD04
:10371000BDD3CAD5B4EDCEF3210D0A002DE9F04199
:103720000B3020F00706104D19E02068B04215D389
:10373000B0420AD9871B201DD4F80480FCF7FAFC9C
:10374000A019C0E90078286004E060682860201DA6
:10375000FCF7F0FC201D2660BDE8F081251D2C68DB
:10376000002CE2D10020F7E73000002010B504461D
:1037700021460A48FDF71CFF70B91420FFF7FCFD35
:1037800000BF21460548FDF713FF0028F9D014209B
:10379000FFF7F2FD002010BD0120FCE7000801400A
:1037A00000B585B000BF0D48806940F004000B49AA
:1037B00088610846806900F00400009000BF00BFE7
:1037C0000320019000200290012003900320049028
:1037D00001A90348FDF75CFD05B000BD00100240E3
:1037E0000008014000B585B000BF1248806940F074
:1037F0000800104988610846806900F008000090C0
:1038000000BF00BF4FF44070019001200290039070
:103810000320049001A90848FDF73AFD0122110296
:103820000548FDF7CDFE012251020348FDF7C8FE11
:1038300005B000BD00100240000C0140FDF7D8FEAD
:103840004FF4E01000F0E6FC4820FFF781FDFFF7A1
:10385000C9FFFFF7A5FFFEF73BFEFEF703FDFDF7EF
:103860009BFCFDF71BFB0CA10CA0FDF7CFFBFFF7AA
:1038700025FE0024204600F01BFC0CE00220FFF790
:1038800075FF40B92046611CCCB2022800DB002441
:10389000204600F00DFCF1E7383000006170692E21
:1038A00073656E6976657273652E636F6D000000D7
:1038B0002DE9F04180460C4600250027E068B0F570
:1038C0007A7F02D30020BDE8F081E068401CE06010
:1038D000A1682068405C5B2800D05FE0A068401CC5
:1038E000A0602046FFF702FC4CB1D4E901108842E9
:1038F00005D2A1682068405C5D2800D13FE01CB182
:10390000D4E90110884203D3A068401EA06045E0BE
:10391000A068401EA06000BF04F11000FFF74FFC3C
:10392000064606B93AE015B93546374602E03E602C
:1039300077603746A068401CA0602046FFF7D6FBA2
:103940002146384600F068FA00B927E02046FFF724
:10395000CDFB44B1D4E90110884204D2A1682068AB
:10396000405C2C28D8D044B1D4E90110884204D25C
:10397000A1682068405C5D2800D00FE000BFE068CF
:10398000401EE06005B16F602020C8F80C00C8F848
:103990000850A068401CA060012094E715B128469B
:1039A000FFF7C8FB00208EE702460023002100BF7E
:1039B00023E0505C302806DB505C392803DC505C87
:1039C0003038034415E0505C412806DB505C462843
:1039D00003DC505C373803440BE0505C612806DBA5
:1039E000505C662803DC505C5738034401E000203B
:1039F0007047032900D21B01491C0429D9D318465A
:103A0000F6E700002DE9F04391B080460C4600BF78
:103A100000201090FFF727FD814600250CB120689B
:103A200018B9002011B0BDE8F08300253CE0A16882
:103A300020680844405D342820D00ADCA0F12B0027
:103A400009282ED2DFE800F0202D212A2D16171884
:103A50001900382816D006DC352810D036280FD0AB
:103A600037281ED10DE039280DD045280FD0652804
:103A700017D10BE000BF00BF00BF00BF00BF00BFF9
:103A800000BF00BF00BF00BF00BF00BF00BFA168F4
:103A900020680844405D0DF8050003E00DF805902E
:103AA00000E00AE000BF6D1C3F2D05D224B1A068E4
:103AB000284461688842BAD300BF00200DF8050091
:103AC00010A9684600F098FB06460F466846109914
:103AD000884201D10020A5E7C8E90667144A154BC2
:103AE00030463946FCF798FE04D86FF00040C8F81D
:103AF000140011E00022104B30463946FCF774FEEA
:103B000004D84FF00040C8F8140005E030463946AC
:103B1000FCF74AFEC8F814000820C8F80C00A0689A
:103B20006A461099891A0844A06001207AE70000CB
:103B30000000C0FFFFFFDF410000E0C12DE9F041C0
:103B400080460C4600260025E068B0F57A7F02D357
:103B50000020BDE8F081E068401CE06044B1D4E999
:103B60000110884204D2A1682068405C7B2800D004
:103B700084E0A068401CA0602046FFF7B7FA4CB173
:103B8000D4E90110884205D2A1682068405C7D28F4
:103B900000D164E01CB1D4E90110884203D3A068CD
:103BA000401EA0606AE0A068401EA06000BF04F153
:103BB0001000FFF704FB074607B95FE016B93E4661
:103BC0003D4602E02F607D603D4624B1A068401C68
:103BD0006168884200D351E0A068401CA060204684
:103BE000FFF784FA2146284600F04EF800B945E078
:103BF0002046FFF77BFA286928620020286144B13B
:103C0000D4E90110884204D2A1682068405C3A28B7
:103C100000D033E0A068401CA0602046FFF766FAA1
:103C20002146284600F0F8F800B927E02046FFF7C3
:103C30005DFA44B1D4E90110884204D2A168206839
:103C4000405C2C28B3D044B1D4E90110884204D29E
:103C5000A1682068405C7D2800D00FE000BFE068CC
:103C6000401EE06006B175604020C8F80C00C8F83E
:103C70000860A068401CA06001206AE716B13046C9
:103C8000FFF758FA002064E72DE9F84F80460C460C
:103C9000A16820680844461CA16820680844451CA7
:103CA000002000900027A1682068405C222800D0F6
:103CB000A6E04FF0000AD1460DE028785C2809D133
:103CC000681C2168401A6168884200D398E009F1B5
:103CD00001096D1C6D1C2068281A6168884202D297
:103CE00028782228E9D12068281A6168884202D2FF
:103CF0002878222800D083E0A16820680844281A88
:103D0000A0EB090A0AF1010021698847074607B9B3
:103D100076E0009761E030785C2807D016F8010B58
:103D2000009908700098401C009056E04FF002097E
:103D3000A81B012800DA63E07078662819D008DC37
:103D4000222832D02F2832D05C282FD0622840D1B0
:103D500008E06E2814D0722819D074281ED0752857
:103D600037D12BE00820009908700098401C009083
:103D700030E00C20009908700098401C009029E069
:103D80000A20009908700098401C009022E00D2045
:103D9000009908700098401C00901BE009200099D1
:103DA00008700098401C009014E000BF00BF7078BD
:103DB000009908700098401C00900BE06A46294664
:103DC000304600F05AFA8146B9F1000F00D117E0F1
:103DD00000E015E000BF4E4400BFAE429BD3002080
:103DE000009908701020C8F80C00C8F810702068FE
:103DF000281AA060A068401CA0600120BDE8F88FD0
:103E00001FB1384661698847002716B12068301A0B
:103E1000A0600020F2E7000070B505460C460CB12A
:103E2000206808B9002070BD9CB1A068001D6168C1
:103E300088420ED8A2682168881804223FA1FCF7A6
:103E4000CDF930B90420E860A068001DA060012011
:103E5000E9E79CB1A068401D616888420ED8A2685D
:103E600021688818052237A1FCF7B8F930B901207C
:103E7000E860A068401DA0600120D4E7ACB1A06854
:103E8000001D6168884210D8A26821688818042241
:103E90002EA1FCF7A3F940B90220E8600120686177
:103EA000A068001DA0600120BDE76CB1D4E901103D
:103EB000884209D2A1682068405C222804D12146AA
:103EC0002846FFF7E1FEAEE7BCB1D4E90110884215
:103ED00013D2A1682068405C2D2809D0A168206811
:103EE000405C302809DBA1682068405C392804DC8C
:103EF00021462846FFF786FD95E76CB1D4E901100D
:103F0000884209D2A1682068405C5B2804D1214620
:103F10002846FFF7CDFC86E76CB1D4E90110884252
:103F200009D2A1682068405C7B2804D1214628463C
:103F3000FFF704FE77E7002075E700006E756C6CF4
:103F40000000000066616C736500000074727565A6
:103F5000000000002DE9F04704008A4616D054F80E
:103F6000047CD4F800903E1F564500D956462046A2
:103F7000FEF704FC05468846324621465046FFF7C8
:103F8000CDFB40B1C0F80090BDE8F087BDE8F04738
:103F90000846FEF721BC44E9017955B129686A1841
:103FA000211F8A4202D9611B091F2960C5F80480BC
:103FB000EAE7024AC2F80080E6E70000300000208D
:103FC00070B504460D46C826FEF76EFA204600F08E
:103FD00019F80DE000F0E8F9012806D12946084853
:103FE000FCF7CCF808B1012070BD0620FFF7C4F93A
:103FF000301EA6F10101CEB2ECD100BFF4E7000003
:104000008400002070B50446002504E0605D00F0E7
:1040100011F8681CC5B2605D0028F7D170BD0000C2
:1040200001B50A23012269460148FEF727F808BDB9
:104030003C00002001B56423012269460148FEF7D7
:104040001DF808BD8404002010B50446012C04D0DE
:10405000022C07D0032C0FD109E008A108A0FFF71C
:10406000AFFF10BD05A10AA0FFF7AAFFF9E703A162
:104070000BA0FFF7A5FFF4E70420F2E74F4B000089
:1040800041542B43574D4F44453D310D0A0000002C
:1040900041542B43574D4F44453D320D0A0000001B
:1040A00041542B43574D4F44453D330D0A0000000A
:1040B00070B50446C4EBC40000EB80003C494218D4
:1040C00002210120FEF7A6F9C4EBC40101EB810136
:1040D000374A114401F11400FCF740FAC5B2132D20
:1040E0004BD2DFE805F00A0B0C0D18191A1B1C2C1B
:1040F0003738393A3B3C3D3E3F0000BF00BF00BF70
:104100002CA20A210220FEF785F90B220A210220A7
:10411000FEF74AF931E000BF00BF00BF00BF25A293
:104120000A210220FEF776F90C220A210220FEF76E
:104130003BF90D220C210220FEF736F91DE01DA2ED
:104140000A210220FEF766F915220A210220FEF755
:104150002BF912E000BF00BF00BF00BF00BF00BFCF
:1041600000BF00BF13A20A210220FEF753F90E225E
:104170000A210220FEF718F900BF00BFC4EBC400FB
:1041800000EB80000A49084400F119020C210320C9
:10419000FEF740F9C4EBC40000EB8000044908447A
:1041A00000F11E020C210420FEF734F970BD00005E
:1041B000CC080020202020202020000010B504463C
:1041C0001CB1206808B1A06808B1002010BD7CB106
:1041D000A068001D616888420AD2A2682168881818
:1041E000032204A1FBF7FAFF10B9A068C01CA0606D
:1041F0002046EBE7EFBBBF0000B583B00A460021C5
:10420000CDE9001101466846FCF7D1FBDDE900016C
:1042100003B000BD30B58FB005460124282105A8A4
:10422000FBF7A1FF14216846FBF79DFF01200590D5
:10423000000406900020079002200C90C1030D910D
:104240000E9505A8FDF796FB04460CB100BFFEE7EE
:104250000F20009002200190002002904FF4806017
:1042600003900020049002216846FDF75FFA04469F
:104270000CB100BFFEE70FB030BD2DE9FF5F8046F7
:104280008946154600240026C24600200390834636
:1042900002900190A9EB0A00062800DA81E00AF1F9
:1042A0000200FFF781FB0646B6F55C4F03D3B6F577
:1042B000604F00D275E0B6F5584F29D3B6F55C4F84
:1042C00026D20AF10607002000900C200290A9EBEC
:1042D0000700062800DA64E038785C2802D1787894
:1042E000752800D05DE0B81CFFF75EFB00900098D9
:1042F000B0F55C4F03D30098B0F5604F00D350E0A9
:10430000C6F30901009861F39F2000F5803402E0B4
:10431000062002903446802C02D20120039018E03F
:10432000B4F5006F04D202200390C020019010E089
:10433000B4F5803F04D203200390E020019008E010
:10434000B4F5881F04D204200390F020019000E00F
:1043500027E00398401E00F0FF0B0BE004F0BF00C5
:1043600040F08000296801F80B00A409ABF10100BE
:1043700000F0FF0BBBF1000FF0DC0398012804DD17
:10438000019820432968087003E004F07F00296841
:1043900008702968039808442860029804B0BDE8B2
:1043A000F09F0020FAE700000C48008808B90220BE
:1043B00070470A4800880A490988884208D10020C5
:1043C0000849064A12888854044908800120EFE70A
:1043D00002480088024908800220E9E72000002006
:1043E00022000020840000200203040506070809BB
:1043F0000A0B0C0D0E0F10100102002018C74444C8
:104400004444FC44444444040000040404070404F9
:104410000404FF04040404040400000000FE22223B
:10442000222222222222FE0000008040300F0202BF
:104430000202020242827F000000000000FE82822F
:104440008282828282FE00000000000000FF404065
:104450004040404040FF00000000101010FF10508E
:10446000424242FE4242424240000444827F814036
:10447000201807003F404040700000E000FF00208F
:10448000C000FE0020C000FF00008140300F00008F
:1044900000003F00000000FF00001060028C0004DC
:1044A0000C94A546A4940C04040004047E0100812D
:1044B000611E000000FE0101010004E4242464A444
:1044C000243F24A4642424E4040000FF0008090914
:1044D000097F09090948807F00004044545454541E
:1044E000547F5454545454444000000000FF1515A8
:1044F00015151555957F00000000000000FC040410
:1045000016250424443C0000000000001C11111179
:104510001F1111115D81413F0000044444FC4444DB
:10452000A09E8888FF88888880001030100F0808B7
:1045300020180601FF01061820001060020CC010B0
:1045400008F714549414F404000004047C030001DC
:104550001D13115599513F11010000FC8484FC008A
:10456000445454547F5454544400003F10103F00AE
:1045700000FF15151555957F00000000101098A438
:104580004744A4540C04000000000081898944447D
:104590004A312111090503000000404042424242D5
:1045A000C24242424242424040000020702824233E
:1045B000202020242830E000000002E222222222D3
:1045C00022FE2222222222E2020000FF0000091223
:1045D000007F00091240807F00004040C05F5555B9
:1045E000D5555555555F4040400020603F25151575
:1045F000FF904729112D4380800004040404F494A3
:1046000095969494F4040404040000FE02027A4A8D
:104610004A4A4A4A7A0282FE0000008060F8070097
:10462000FC848484FE8283828000010000FF0000FD
:10463000FF402000418E3040F80020104C47545479
:104640005454545454D404040000000000000000EA
:1046500000000000000F3040F0001060028C0000ED
:10466000FE9292929292FE00000004047E01407E2F
:1046700042427E427E42427E4000060909E6F80C34
:10468000040202020202041E0000000000071F30A4
:104690002040404040402010000000FE0222DA0688
:1046A00000FE2222222222FE000000FF081088477E
:1046B000300F02020242827F000000000000000072
:1046C00000000000000000000000000000F80000F2
:1046D0000000000000333000000000100C06100C39
:1046E0000600000000000000000040C07840C078D4
:1046F0004000043F04043F040400007088FC0830BC
:104700000000001820FF211E0000F008F000E01853
:10471000000000211C031E211E0000F0088870000C
:1047200000001E2123241927211010160E0000005E
:1047300000000000000000000000000000E018047D
:104740000200000000071820400000020418E000EA
:1047500000000040201807000000404080F080402A
:1047600040000202010F01020200000000F0000000
:1047700000000101011F0101010000000000000014
:10478000000080B070000000000000000000000089
:104790000000000101010101010100000000000012
:1047A00000000030300000000000000000008060C9
:1047B0001804006018060100000000E0100808104E
:1047C000E000000F102020100F00001010F8000073
:1047D00000000020203F202000000070080808880A
:1047E00070000030282422213000003008888848DA
:1047F00030000018202020110E000000C02010F80A
:10480000000000070424243F240000F808888808DA
:1048100008000019212020110E0000E010888818DF
:104820000000000F112020110E0000380808C838C1
:1048300008000000003F00000000007088080888A1
:104840007000001C222121221C0000E0100808102A
:10485000E0000000312222110F00000000C0C00063
:104860000000000000303000000000000080000068
:104870000000000080600000000000008040201068
:104880000800000102040810200040404040404061
:1048900040000404040404040400000810204080C4
:1048A00000000020100804020100007048080808F9
:1048B000F0000000003036010000C030C828E810C9
:1048C000E0000718272423140B000000C038E00084
:1048D0000000203C23020227382008F888888870CE
:1048E0000000203F202020110E00C03008080808DA
:1048F0003800071820202010080008F808080810C1
:10490000E000203F202020100F0008F88888E808E9
:104910001000203F20202320180008F88888E8088D
:104920001000203F200003000000C03008080838B5
:10493000000007182020221E020008F808000008C6
:10494000F808203F210101213F20000808F808084D
:1049500000000020203F2020000000000808F80888
:104960000800C08080807F00000008F888C02818F8
:104970000800203F20012638200008F80800000029
:104980000000203F20202020300008F8F800F8F830
:104990000800203F003F003F200008F830C000081A
:1049A000F808203F200007183F00E0100808081012
:1049B000E0000F10202020100F0008F80808080859
:1049C000F000203F210101010000E010080808105C
:1049D000E0000F18242438504F0008F88888888891
:1049E0007000203F2000030C302000708808080869
:1049F00038000038202121221C00180808F8080877
:104A000018000000203F2000000008F808000008FF
:104A1000F808001F202020201F000878880000C808
:104A20003808000007380E010000F80800F80008F8
:104A3000F800033C0700073C030008186880806802
:104A4000180820302C03032C30200838C800C83840
:104A500008000000203F2000000010080808C838A7
:104A600008002038262120201800000000FE020245
:104A700002000000007F40404000000C30C00000F9
:104A80000000000000010638C00000020202FE0023
:104A90000000004040407F000000000004020202CD
:104AA0000400000000000000000000000000000002
:104AB00000008080808080808080000202040000EE
:104AC00000000000000000000000000080808080E6
:104AD00000000019242222223F2008F800808000D4
:104AE0000000003F112020110E0000000080808097
:104AF0000000000E1120202011000000008080889E
:104B0000F800000E112020103F20000080808080DF
:104B10000000001F222222221300008080F08888DB
:104B200088180020203F2020000000008080808026
:104B30008000006B94949493600008F8008080805B
:104B40000000203F210000203F20008098980000B6
:104B500000000020203F20200000000000809898E6
:104B6000000000C08080807F000008F80000808086
:104B70008000203F24022D302000000808F80000AB
:104B800000000020203F2020000080808080808066
:104B90008000203F20003F20003F808000808080F8
:104BA0000000203F210000203F2000008080808006
:104BB0000000001F202020201F0080800080800037
:104BC000000080FFA12020110E00000000808080E6
:104BD0008000000E112020A0FF8080808000808057
:104BE000800020203F212000010000008080808084
:104BF00080000033242424241900008080E0808079
:104C000000000000001F20200000808000000080C5
:104C10008000001F202020103F2080808000008026
:104C2000808000010E300806010080800080008036
:104C300080800F300C030C300F00008080008080DB
:104C400080000020312E0E31200080808000008006
:104C5000808080818E7018060100008080808080B6
:104C600080000021302C2221300000000000807CD8
:104C7000020200000000003F404000000000FF0072
:104C8000000000000000FF0000000002027C800025
:104C900000000040403F0000000000060101020249
:104CA00004040000000000000000000000000000FC
:104CB00000000102030406070809000000000102C9
:104CC0000304004040404040404040404141414199
:104CD00041404040404040404040404040404040D3
:104CE00040404005020202020202020202020202E7
:104CF0000202022020202020202020202002020268
:104D000002020202909090909090101010101010DB
:104D100010101010101010101010101010100202AF
:104D2000020202028888888888880808080808081B
:104D300008080808080808080808080808080202FF
:104D400002024000C34C0008474554206874747048
:104D5000733A2F2F6170692E73656E697665727371
:104D6000652E636F6D2F76332F776561746865727A
:104D70002F6461696C792E6A736F6E3F6B65793D44
:104D80002573266C6F636174696F6E3D2573266CA5
:104D9000616E67756167653D7A682D48616E73263F
:104DA000756E69743D632673746172743D25642663
:104DB000646179733D25640D0A000000DC4D000834
:104DC000000000203C00000028280008184E0008C1
:104DD0003C000020FC1800003828000800000000FB
:104DE00010000000010000000000000000000000B2
:104DF000D92700087D270008553F00080000000063
:104E0000000000000024F40000000000000000008A
:084E100000000000000000009A
:04000005080000ED02
:00000001FF
